:030000000207C52F
:0C07C500787FE4F6D8FD75816902080C0D
:100AB200415445300D0A0041542B434D47463D31C8
:100AC2000D0A0041542B435343533D2247534D22B9
:100AD2000D0A0041542B434E4D493D322C322C30ED
:100AE2002C302C300D0A00303030303030303000B5
:100AF20041542B434D47533D223135313038393142
:100B020031383933220D0A0031353130383931313B
:0A0B120038393300FFFFFFFFFFFF3B
:10052B0002220000606400000000000000000000D8
:10053B0000000000000000000000000000000000B0
:10054B0000000000000000000000000000000000A0
:10055B000000000000000000000000000000000090
:10056B000000000000000000000000000000000080
:10057B000000000000000000000000000000000070
:10058B0000000000000000000000000006084C4DB9
:10059B004A592D004B007B53595354454D204F4B1B
:1005AB00210053008654686520646F6F7220697355
:1005BB00206F70656E6564004D006E446F6F722026
:1005CB00636C6F73656421004A00643A436F6D6519
:0505DB0020696E210003
:100CDC007B017A007900120D7FEFD3946440027F80
:100CEC0064E4FEEEC39F500F74002EF582E43400D2
:0C0CFC00F583E4F00E80ECE4F522F52313
:010D080022C8
:03002300020BAE1F
:0D0BAE00C0E0C083C082C0D075D000C00779
:100BBB00AF99C29874002523F582E43400F583EFD6
:100BCB00F00523E52370020522D39464E5229400FB
:080BDB0040067522007523009D
:0B0BE300D007D0D0D082D083D0E03209
:100A4500E4F5257F05FE120C697BFF7A0A79B2125F
:100A55000D4F7F017E00120C697BFF7A0A79B9126E
:100A65000D4F7F017E00120C697BFF7A0A79C51252
:100A75000D4F7F017E00120C697BFF7A0A79D51232
:100A85000D4F7F017E00120C69120CDC7F83120D65
:100A9500B3747B2525F582E43400F583E0FF600C13
:0C0AA500120DBD7F05120C3E052580E5FA
:010AB1002222
:10000300E4FDFCE4FBFAC3EB9FEA9E5008000BBB44
:0F00130000010A80F10DBD00010CEDF44C70E40A
:0100220022BB
:10002600E4F524120D2F120D69120A45120B1C124B
:100036000DCF120D097B007A00790E7F5212094FFF
:10004600EF60030201A5FB7A00790E1203B8EF6098
:10005600030201A5FB7A00790E120473EF60030216
:1000660001A5F52A752B00752C0E7BFF7A0B7916E8
:100076007D017F60120690EF60030201A5FB7A0006
:10008600790E7F01120738EF60030201A57528FF7C
:1000960075290A752AE9FB7A007916120851E94A88
:1000A6004B70030201A5E51324D075F00AA4FFE501
:1000B6001224D075F064A42FFFE51424D02FF52464
:1000C600C39464400985120D85130E85140FE5242B
:1000D600C3940A400CE5249464500685130D8514D8
:1000E6000EE524C3940A501B85140DE4F524740808
:1000F6002524F8E6600DE524D394054002E4F605D0
:100106002480EBE4F5247FC0120DB374082524F88F
:10011600E6FF600C120DBD7F05120C3E052480EB38
:10012600E4F524D290C2917F02FE120C69D290D2DD
:100136009174642524F582E43400F583E0FF600CB5
:10014600120DBD7F05120C3E052480E5E4F5247BE7
:10015600FF7A0A79F2120D4F7F017E00120C697B3D
:10016600007A007908120D4F7F1A120DC7120CDCA7
:100176007F047E00120C697F01120DB37F83120D7E
:10018600B3747B2524F582E43400F583E0FF600C2C
:10019600120DBD7F05120C3E052480E5E4F524759D
:1001A60028FF75290B752A0A7B017A007900120847
:1001B60051E94A4B700302003B7F017E00120C6935
:1001C600D290C2917F057E00120C69120CDCD2908F
:1001D600D2917FC0120DB374862524F582E43400D3
:1001E600F583E0FF600C120DBD7F05120C3E052461
:1001F60080E5E4F5247F02FE120C697F01120DB33F
:100206007FC2120DB3746E2524F582E43400F583A3
:10021600E0FF600C120DBD7F05120C3E052480E543
:06022600E4F52402003B98
:100C2D00C2A28F807F017E00120C3ED2A07F057E76
:010C3D0000B6
:100C3E00D3EF9400EE940040217DC77C007B017AB7
:100C4E0000EB1B70011AEB4A70F7ED1D70011CEDE5
:0A0C5E004C70EAEF1F70D91E80D61B
:010C68002269
:0A0DB300C2A0C2A1120C2DC2A022A2
:0A0DBD00C2A0D2A1120C2DC2A02288
:100D2F007FC87E00120C3E7F38120DB37F38120D34
:100D3F00B37F38120DB37F0C120DB37F01020DB3C9
:100D6900758920758DFD758BFDD28EC29FD29ED25D
:060D79009CD2AFD2AC22B7
:080DC7008F993099FDC29922B9
:100D4F00C2AC1205E16010F5993099FDC29974019A
:0A0D5F0029F9E43AFA80EBD2AC2245
:040C69008E268F271D
:100C6D00E4F528F529C3E5299527E528952650258E
:100C7D00E4F583F582AF82AE83E4FCFD7BFD7AFF64
:100C8D00F9F8D312067A4003A380EA0529E5297005
:050C9D00D4052880D001
:010CA200222F
:08094F008F258B268A278928D9
:10095700120D947D077F0D120BF27D037F14120D8C
:10096700A690009CE525F0753101753201753300BD
:1009770075349C75350175360075379A7B017A0099
:10098700799C7F0C120246900099EFF07029A3E042
:100997007004A3E06410701F90009CE0AB26AA27A8
:1009A700A92812062790009DE0AB26AA27A9289020
:1009B7000001120639800690009974FEF0900099A4
:0209C700E0FF4F
:0109C900220B
:0603B8008B258A2689272F
:1003BE00E490009BF0120D94E4FD7F0D120BF27D84
:1003CE00807F0E120D9890009E7493F0A37420F00F
:1003DE0075310275320175330075349E75350175B0
:1003EE00360075379C7B017A00799E7F0C1202468F
:1003FE00900099EFF07061A3F090009AE0FFC39423
:10040E00045039E0FE249EF582E43400F583E0AB1F
:10041E0025AA26A9278E8275830012063990009B85
:10042E00E0FE749E2FF582E43400F583E0FFEE6F5C
:10043E0090009BF090009AE004F080BD90009AE04E
:10044E00249EF582E43400F583E0FF90009BE06F7C
:10045E00600690009974FEF07D807F0E120DA690BE
:04046E000099E0FF12
:010472002267
:060473008B258A26892773
:1004790090009D7493F0A37470F0E49000A3F09041
:10048900009AF090009AE0FFC394045039AB25AA72
:1004990026A927E0FEF5827583001205FAFD749FEF
:1004A9002EF582E43400F583EDF09000A3E0FE8F91
:1004B900827583001205FAFFEE6F9000A3F0900099
:1004C9009AE004F080BD752C01752D00752EA47B72
:1004D900017A00799D7D071208D9120D94753109A9
:1004E90075320175330075349D75350175360075A2
:1004F900379B7B017A00799D7F0C12024690009907
:10050900EFF0701290009BE07004A3E0641870068D
:10051900900099F0800690009974FEF0900099E09F
:01052900FFD2
:01052A0022AE
:060690008B278A2889294E
:1006960090009DEFF0A3EDF0E490009CF0AB27AA4C
:1006A60028A92990009CE0FFF5827583001205FABF
:1006B600FE749F2FF582E43400F583EEF090009CE3
:1006C600E004F0E0B406D6E490009CF0AB2AAA2B36
:1006D600A92C90009CE0FFF5827583001205FAFEB6
:1006E60074A52FF582E43400F583EEF090009CE0CB
:1006F60004F0E0B406D675310C7532017533007519
:10070600349D75350175360075379A7B017A007907
:100716009D7F0E120246900099EFF070097F081235
:100726000B71EF20E30690009974FEF0900099E0BB
:01073600FFC3
:01073700229F
:060738008B258A268927AB
:10073E0090009D7430F0A3EFF0752C01752D0075AF
:10074E002E9F7B017A00799D7D021208D9753104A6
:10075E0075320175330075349D753501753600752A
:10076E00379A7B017A00799D7F0C12024690009990
:10077E00EFF07037A3E07004A3E06490702D90004A
:10078E009CF090009CE0FF249DF582E43400F583FC
:10079E00E0AB25AA26A9278F827583001206399011
:1007AE00009CE004F0E0B410D9800690009974FE2D
:0607BE00F0900099E0FF3D
:0107C4002212
:0609CA008B3E8A3F8940CC
:1009D0007543A08F44752C00752D00752E457D0242
:1009E0001208D375310412022CEF7010E542640432
:1009F00045417008E543540F640A60027FFEEF70C2
:100A000043FEAB3EAA3FA9408E827583001205FAD1
:100A1000FD74432EF8A6050EBE10E7752C00752D4B
:100A200000752E537D101208D375311212022CEF6F
:100A30007010E542640445417008E543540F640AB0
:040A400060027FFED3
:010A4400228F
:100CA300755850E4F559F52C752D00752E5AFB7ABD
:100CB3000079587D021208D97531047532007533F5
:100CC300007534587535007536007537567A0079D6
:080CD300581202428F557F0008
:010CDB0022F6
:0608D3007B007A0079436E
:0808D9008B288A29892A8D2B46
:1008E1007D047F05120D98120BEE7D807F0A120D9B
:1008F100A6E4F52FE52FC3952B5019AB28AA29A9FA
:100901002A852F827583001205FAFD7F09120BF2E9
:10091100052F80E07D037F01120BF2752FFF7F050C
:10092100120B71152FE52F6004EF30E2F17F2212D7
:100931000B71AB2CAA2DA92EEF1206277F21120BCA
:0E09410071AB2CAA2DA92E900001EF020639F1
:100B1C00D2A37F017E00120003C2A37F017E0012CC
:100B2C000003D2A37F017E001200037D0F7F011210
:100B3C000BF27F017E001200037D3D7F11120BF240
:100B4C007D1E7F2D120BF2E4FD7F2C120BF27D8D9E
:0F0B5C007F2A120BF27D3E7F2B120BF27F0022BD
:060B6B00AC07AB05E4FE3F
:100B7100E4FEC2A6C2A7EF25E0547E4480FF7D08B3
:100B8100EF30E703D38001C392A5D2A6EF25E0FFA2
:100B9100C2A6DDEC7D08D2A6EE25E0FEA2A4E433D8
:0C0BA1004206C2A6DDF0D2A7D2A6AF0625
:010BAD002225
:040BEE00E4FD7F01A2
:100BF200C2A6C2A7EF25E0547EFF7E08EF30E703CE
:100C0200D38001C392A5D2A6EF25E0FFC2A6DEECF7
:100C12007E08ED30E703D38001C392A5D2A6ED256D
:0A0C2200E0FDC2A6DEECD2A7D2A6C8
:010C2C0022A5
:0D0DA600120B6BAE07AF04EB4EFD020BF21B
:040D94007D087F084F
:0E0D9800120B6BAE07AF04EBF45EFD020BF224
:10022C0075320075330075344375350075360075BD
:0A023C0037417A0079437B007F0C04
:080246008F2D8B2E8A2F8930C9
:10024E007538FEE4F539F53AE52D24F4600C24FEFC
:10025E00700E753912753A108006753977753A3009
:10026E00E5394480FD7F02120BF27D807F04120D72
:10027E0098120BEE7D807F0A120DA6E4F53CF53D3B
:10028E00C3E53D9531E53C9400501FAB2EAA2FA936
:10029E0030853D82853C831205FAFD7F09120BF2F3
:1002AE00053DE53D70DA053C80D6AD2D7F01120B84
:1002BE00F2E52DB40C077D807F0D120DA6753C0264
:1002CE00753D587F04120B718F3BE53D153D700255
:1002DE00153CE53D453C6009E53B20E004553A60A0
:1002EE00E27D807F0D120D98E53D453C70030203C3
:1002FE00AB7F06120B71EF541B60030203A8F53897
:10030E00E53B553930E0037538FFE52D640C60038D
:10031E000203AB7F0A120B718F3B7F0C120B71EF36
:10032E005407FD6021E53B24FFFFE434FFFEEF7828
:10033E0003C333CE33CED8F97C002DFFEC3EAB3564
:10034E00AA36A937800FE53B75F008A4FFAB35AA96
:10035E0036A937E5F08FF012065BE53B7003753B6F
:10036E0001E53BD394124003753B12E4F53CF53D99
:10037E00C3E53D953BE53C940050227F09120B717D
:10038E00AB32AA33A934853D82853C83EF12063900
:10039E00053DE53D70DA053C80D67538FE7D807FE3
:0903AE000C120DA6120BEEAF3883
:0103B7002223
:100D09007D407F15120BF27F0A7E001200037F14CB
:100D1900120B71AA07EA540370077D037F14120DA1
:060D2900A67F15020B710C
:070DCF007D037F14020D9863
:1007D100020026E493A3F8E493A34003F68001F218
:1007E10008DFF48029E493A3F85407240CC8C33329
:1007F100C4540F4420C8834004F456800146F6DFF8
:10080100E4800B010204081020408090052BE47E57
:10081100019360BCA3FF543F30E509541FFEE493EC
:10082100A360010ECF54C025E060A840B8E493A3B3
:10083100FAE493A3F8E493A3C8C582C8CAC583CADE
:10084100F0A3C8C582C8CAC583CADFE9DEE780BE96
:0105E000001A
:1005E100BB010689828A83E0225002E722BBFE0218
:0905F100E32289828A83E493224B
:1005FA00BB010CE58229F582E5833AF583E02250B6
:10060A0006E92582F8E622BBFE06E92582F8E222FF
:0D061A00E58229F582E5833AF583E4932219
:10062700BB010689828A83F0225002F722BBFE01B2
:02063700F322AC
:10063900F8BB010DE58229F582E5833AF583E8F0F7
:10064900225006E92582C8F622BBFE05E92582C8A3
:02065900F2228B
:10065B00BB010A89828A83F0E5F0A3F0225006F7EA
:0F066B0009A7F01922BBFE06F3E5F009F31922E7
:10067A00EB9FF5F0EA9E42F0E99D42F0EC6480C8F7
:06068A0064809845F02297
:100D7F00E4FFFE1205E1600C0FEF70010E09E97040
:050D8F00F20A80EF22D2
:100851008B258A268927AB28AA29A92A1205E160B6
:1008610063AB25AA26A9271205E1605F85282B85A0
:10087100292C852A2D8B2E8A2F8930AB2BAA2CA9C6
:100881002D1205E1FF6023AB2EAA2FA9301205E13D
:100891006F701704252DF52DE4352CF52C740125E9
:1008A10030F530E4352FF52F80D1AB2BAA2CA92DB3
:1008B1001205E17002800D74012527F527E4352624
:1008C100F526809DAB25AA26A927227B007A0079EF
:0208D100002203
:00000001FF
